{"abi":[{"type":"function","name":"lower","inputs":[{"name":"_base","type":"string","internalType":"string"}],"outputs":[{"name":"","type":"string","internalType":"string"}],"stateMutability":"pure"},{"type":"function","name":"removeTrailingZeros","inputs":[{"name":"input","type":"string","internalType":"string"}],"outputs":[{"name":"","type":"string","internalType":"string"}],"stateMutability":"pure"},{"type":"function","name":"upper","inputs":[{"name":"_base","type":"string","internalType":"string"}],"outputs":[{"name":"","type":"string","internalType":"string"}],"stateMutability":"pure"}],"bytecode":{"object":"0x6080806040523461001a576103a89081610020823930815050f35b600080fdfe6080604052600436101561001257600080fd5b6000803560e01c80634a9d1d70146100d95780637e9ad0461461009d576384b2e59d1461003e57600080fd5b610047366101e4565b90805b825181101561008b57610086906100746001600160f81b031961006d83876102b6565b5116610328565b831a61008082866102b6565b53610291565b61004a565b604051806100998582610248565b0390f35b506100a7366101e4565b90805b825181101561008b576100d4906100746001600160f81b03196100cd83876102b6565b51166102dd565b6100aa565b506100e3366101e4565b90815190805b8351811015610186576001600160f81b031961010582866102b6565b51161561011a5761011590610291565b6100e9565b91505b61012e610129836101c8565b61018c565b82815292601f1961013e846101c8565b01366020860137815b83811061015c57604051806100998782610248565b610181906001600160f81b031961017382856102b6565b5116841a61008082886102b6565b610147565b5061011d565b6040519190601f01601f1916820167ffffffffffffffff8111838210176101b257604052565b634e487b7160e01b600052604160045260246000fd5b67ffffffffffffffff81116101b257601f01601f191660200190565b60206003198201126102435760043567ffffffffffffffff811161024357816023820112156102435780600401359061021f610129836101c8565b92828452602483830101116102435781600092602460209301838601378301015290565b600080fd5b6020808252825181830181905290939260005b82811061027d57505060409293506000838284010152601f8019910116010190565b81810186015184820160400152850161025b565b60001981146102a05760010190565b634e487b7160e01b600052601160045260246000fd5b9081518110156102c7570160200190565b634e487b7160e01b600052603260045260246000fd5b6001600160f81b0319606160f81b828216908110159081610319575b50610302575090565b9060f81c601f190160ff81116102a05760f81b1690565b603d60f91b10159050386102f9565b6001600160f81b0319604160f81b828216908110159081610363575b5061034d575090565b9060f81c60200160ff81116102a05760f81b1690565b602d60f91b101590503861034456fea26469706673582212209dccb50829f013ddfa492f9b0b0698dbc903ef7ec495575c3b587a3bdd73df1e64736f6c63430008150033","linkReferences":{}},"methodIdentifiers":{"lower(string)":"84b2e59d","removeTrailingZeros(string)":"4a9d1d70","upper(string)":"7e9ad046"},"id":46}