{"abi":[{"type":"constructor","inputs":[{"name":"v","type":"address","internalType":"contract Verifier"},{"name":"d","type":"address","internalType":"contract DKIMRegistry"}],"stateMutability":"nonpayable"},{"type":"function","name":"_domainCheck","inputs":[{"name":"headerSignals","type":"uint256[]","internalType":"uint256[]"}],"outputs":[{"name":"","type":"bool","internalType":"bool"}],"stateMutability":"pure"},{"type":"function","name":"addressIndexInSignals","inputs":[],"outputs":[{"name":"","type":"uint32","internalType":"uint32"}],"stateMutability":"view"},{"type":"function","name":"approve","inputs":[{"name":"to","type":"address","internalType":"address"},{"name":"tokenId","type":"uint256","internalType":"uint256"}],"outputs":[],"stateMutability":"nonpayable"},{"type":"function","name":"balanceOf","inputs":[{"name":"owner","type":"address","internalType":"address"}],"outputs":[{"name":"","type":"uint256","internalType":"uint256"}],"stateMutability":"view"},{"type":"function","name":"bytesInPackedBytes","inputs":[],"outputs":[{"name":"","type":"uint16","internalType":"uint16"}],"stateMutability":"view"},{"type":"function","name":"getApproved","inputs":[{"name":"tokenId","type":"uint256","internalType":"uint256"}],"outputs":[{"name":"","type":"address","internalType":"address"}],"stateMutability":"view"},{"type":"function","name":"isApprovedForAll","inputs":[{"name":"owner","type":"address","internalType":"address"},{"name":"operator","type":"address","internalType":"address"}],"outputs":[{"name":"","type":"bool","internalType":"bool"}],"stateMutability":"view"},{"type":"function","name":"mint","inputs":[{"name":"proof","type":"uint256[8]","internalType":"uint256[8]"},{"name":"signals","type":"uint256[4]","internalType":"uint256[4]"}],"outputs":[],"stateMutability":"nonpayable"},{"type":"function","name":"name","inputs":[],"outputs":[{"name":"","type":"string","internalType":"string"}],"stateMutability":"view"},{"type":"function","name":"ownerOf","inputs":[{"name":"tokenId","type":"uint256","internalType":"uint256"}],"outputs":[{"name":"","type":"address","internalType":"address"}],"stateMutability":"view"},{"type":"function","name":"pubKeyHashIndexInSignals","inputs":[],"outputs":[{"name":"","type":"uint32","internalType":"uint32"}],"stateMutability":"view"},{"type":"function","name":"safeTransferFrom","inputs":[{"name":"from","type":"address","internalType":"address"},{"name":"to","type":"address","internalType":"address"},{"name":"tokenId","type":"uint256","internalType":"uint256"}],"outputs":[],"stateMutability":"nonpayable"},{"type":"function","name":"safeTransferFrom","inputs":[{"name":"from","type":"address","internalType":"address"},{"name":"to","type":"address","internalType":"address"},{"name":"tokenId","type":"uint256","internalType":"uint256"},{"name":"data","type":"bytes","internalType":"bytes"}],"outputs":[],"stateMutability":"nonpayable"},{"type":"function","name":"setApprovalForAll","inputs":[{"name":"operator","type":"address","internalType":"address"},{"name":"approved","type":"bool","internalType":"bool"}],"outputs":[],"stateMutability":"nonpayable"},{"type":"function","name":"supportsInterface","inputs":[{"name":"interfaceId","type":"bytes4","internalType":"bytes4"}],"outputs":[{"name":"","type":"bool","internalType":"bool"}],"stateMutability":"view"},{"type":"function","name":"symbol","inputs":[],"outputs":[{"name":"","type":"string","internalType":"string"}],"stateMutability":"view"},{"type":"function","name":"tokenByIndex","inputs":[{"name":"index","type":"uint256","internalType":"uint256"}],"outputs":[{"name":"","type":"uint256","internalType":"uint256"}],"stateMutability":"view"},{"type":"function","name":"tokenDesc","inputs":[{"name":"tokenId","type":"uint256","internalType":"uint256"}],"outputs":[{"name":"","type":"string","internalType":"string"}],"stateMutability":"view"},{"type":"function","name":"tokenIDToName","inputs":[{"name":"","type":"uint256","internalType":"uint256"}],"outputs":[{"name":"","type":"string","internalType":"string"}],"stateMutability":"view"},{"type":"function","name":"tokenOfOwnerByIndex","inputs":[{"name":"owner","type":"address","internalType":"address"},{"name":"index","type":"uint256","internalType":"uint256"}],"outputs":[{"name":"","type":"uint256","internalType":"uint256"}],"stateMutability":"view"},{"type":"function","name":"tokenURI","inputs":[{"name":"tokenId","type":"uint256","internalType":"uint256"}],"outputs":[{"name":"","type":"string","internalType":"string"}],"stateMutability":"view"},{"type":"function","name":"totalSupply","inputs":[],"outputs":[{"name":"","type":"uint256","internalType":"uint256"}],"stateMutability":"view"},{"type":"function","name":"transferFrom","inputs":[{"name":"from","type":"address","internalType":"address"},{"name":"to","type":"address","internalType":"address"},{"name":"tokenId","type":"uint256","internalType":"uint256"}],"outputs":[],"stateMutability":"nonpayable"},{"type":"function","name":"usernameIndexInSignals","inputs":[],"outputs":[{"name":"","type":"uint32","internalType":"uint32"}],"stateMutability":"view"},{"type":"function","name":"usernameLengthInSignals","inputs":[],"outputs":[{"name":"","type":"uint32","internalType":"uint32"}],"stateMutability":"view"},{"type":"function","name":"verifier","inputs":[],"outputs":[{"name":"","type":"address","internalType":"contract Verifier"}],"stateMutability":"view"},{"type":"event","name":"Approval","inputs":[{"name":"owner","type":"address","indexed":true,"internalType":"address"},{"name":"approved","type":"address","indexed":true,"internalType":"address"},{"name":"tokenId","type":"uint256","indexed":true,"internalType":"uint256"}],"anonymous":false},{"type":"event","name":"ApprovalForAll","inputs":[{"name":"owner","type":"address","indexed":true,"internalType":"address"},{"name":"operator","type":"address","indexed":true,"internalType":"address"},{"name":"approved","type":"bool","indexed":false,"internalType":"bool"}],"anonymous":false},{"type":"event","name":"Transfer","inputs":[{"name":"from","type":"address","indexed":true,"internalType":"address"},{"name":"to","type":"address","indexed":true,"internalType":"address"},{"name":"tokenId","type":"uint256","indexed":true,"internalType":"uint256"}],"anonymous":false},{"type":"error","name":"ERC721EnumerableForbiddenBatchMint","inputs":[]},{"type":"error","name":"ERC721IncorrectOwner","inputs":[{"name":"sender","type":"address","internalType":"address"},{"name":"tokenId","type":"uint256","internalType":"uint256"},{"name":"owner","type":"address","internalType":"address"}]},{"type":"error","name":"ERC721InsufficientApproval","inputs":[{"name":"operator","type":"address","internalType":"address"},{"name":"tokenId","type":"uint256","internalType":"uint256"}]},{"type":"error","name":"ERC721InvalidApprover","inputs":[{"name":"approver","type":"address","internalType":"address"}]},{"type":"error","name":"ERC721InvalidOperator","inputs":[{"name":"operator","type":"address","internalType":"address"}]},{"type":"error","name":"ERC721InvalidOwner","inputs":[{"name":"owner","type":"address","internalType":"address"}]},{"type":"error","name":"ERC721InvalidReceiver","inputs":[{"name":"receiver","type":"address","internalType":"address"}]},{"type":"error","name":"ERC721InvalidSender","inputs":[{"name":"sender","type":"address","internalType":"address"}]},{"type":"error","name":"ERC721NonexistentToken","inputs":[{"name":"tokenId","type":"uint256","internalType":"uint256"}]},{"type":"error","name":"ERC721OutOfBoundsIndex","inputs":[{"name":"owner","type":"address","internalType":"address"},{"name":"index","type":"uint256","internalType":"uint256"}]}],"bytecode":{"object":"0x60a0346200036157601f6001600160401b03601f1962004c0f38819003848101831686019190848311878410176200034b578087926040948552833981010312620003615783516001600160a01b03939092908484168403620003615760208096015194851680950362000361576200007762000366565b926200008262000366565b908451908482116200034b576000918254966001978881811c9116801562000340575b8c8210146200032c57908b8288859411620002d6575b50508b908783116001146200027157859262000265575b5050600019600383901b1c191690871b1782555b8251948511620002515785548681811c9116801562000246575b8a8210146200023257848111620001ea575b50889385116001146200018457508394959697509262000178575b5050600019600383901b1c191690821b1790555b608052600b80546001600160a01b03191691909117905560405161486e9081620003a182396080518181816127f0015261379d0152f35b0151905038806200012d565b8493929193169785845280842093905b898210620001d2575050838596979810620001b8575b505050811b01905562000141565b015160001960f88460031b161c19169055388080620001aa565b80878596829496860151815501950193019062000194565b8683528983208580880160051c8201928c891062000228575b0160051c019087905b8281106200021c57505062000112565b8481550187906200020c565b9250819262000203565b634e487b7160e01b83526022600452602483fd5b90607f169062000100565b634e487b7160e01b82526041600452602482fd5b015190503880620000d2565b908c91858b95168780528388209388905b828210620002bc5750508411620002a2575b505050811b018255620000e6565b015160001960f88460031b161c1916905538808062000294565b8484015186558d9790950194938401939081019062000282565b90919250858052878287209181860160051c830193861062000322575b918b91869594930160051c01915b8281106200031357508d9150620000bb565b8781558594508b910162000301565b92508192620002f3565b634e487b7160e01b85526022600452602485fd5b90607f1690620000a5565b634e487b7160e01b600052604160045260246000fd5b600080fd5b60408051919082016001600160401b038111838210176200034b57604052600d82526c15995c9a599a5959115b585a5b609a1b602083015256fe608080604052600436101561001357600080fd5b60003560e01c90816301ffc9a7146139ec5750806306fdde0314613942578063081812fc14613904578063095ea7b31461381d57806314c522511461380157806318160ddd146137e357806323b872dd146137cc5780632b7ac3f3146137875780632f745c5914613703578063312033bf146136e75780633827fc6f146132a55780633e098490146130c157806342842e0e146130995780634f6ccce7146130435780634f79d38a14613017578063572f892a1461260d57806361e80718146101985780636352211e146125dd57806370a08231146125b257806395d89b41146124d4578063a22cb4651461242f578063b88d4fde146123a5578063bec47aea14612389578063c87b56dd1461019d578063c9929db9146101985763e985e9c51461013d57600080fd5b3461019357604036600319011261019357610156613ab9565b61015e613acf565b9060018060a01b03809116600052600560205260406000209116600052602052602060ff604060002054166040519015158152f35b600080fd5b613c6b565b3461019357602036600319011261019357600435600052600c6020526101c66040600020613bc7565b6101d16004356140e9565b906101e46001600160a01b038316614747565b916101f76001600160a01b038216614747565b6102096001600160a01b0383166147db565b9361021c6001600160a01b0384166147db565b60ff8460101c1661025160ff61024b6102418261023b6004358761415b565b06614487565b936004359061415b565b066145ea565b61026760ff61023b600435828a60201c1661415b565b61027d60ff61024b600435828b60201c1661415b565b9160ff8860301c16936102a860ff61024b61029e8261023b6004358b61415b565b976004359061415b565b956040519b8c6001600160401b03610180828181011092011117612373576103fb9960608e8e6101808201604052815260043560208201528b6040820152015260808d015260a08c015260c08b015260e08a01526101008901526101208801526101408701526101608601526103f660aa60405180937f3c7376672077696474683d2732393027206865696768743d273530302720766960208301527f6577426f783d2730203020323930203530302720786d6c6e733d27687474703a60408301527f2f2f7777772e77332e6f72672f323030302f737667273e3c726563742077696460608301527f74683d27323930707827206865696768743d273530307078272066696c6c3d276080830152602360f81b60a08301526103d481518092602060a186019101613a71565b81016813979f1e17b9bb339f60b91b60a182015203608a810184520182613b6c565b614295565b61129d6109ea6104af60206103f6602260c08a015160e08b015160608c01519060405195869361043c61042f838701614406565b9182815194859201613a71565b0165272063793d2760d01b815261045d825180936020600685019101613a71565b01722720723d273132307078272066696c6c3d272360681b600682015261048e825180936020601985019101613a71565b016813979f1e17b9bb339f60b91b6019820152036002810184520182613b6c565b926104e060206103f660226101008b01516101208c015160808d01519060405195869361043c61042f838701614406565b61056360206103f660226101408c01518c60a06101608201519101519060405195869361051161042f838701614406565b0165272063793d2760d01b8152610532825180936020600685019101613a71565b01722720723d273130307078272066696c6c3d272360681b600682015261048e825180936020601985019101613a71565b907f22202f3e3c6665426c656e64206d6f64653d226f7665726c61792220696e3d2260408a0151916040519788957f3c7376672077696474683d2232393022206865696768743d223530302220766960208801527f6577426f783d2230203020323930203530302220786d6c6e733d22687474703a6040880152751797bbbbbb973b999737b933979918181817b9bb339160511b60608801527f20786d6c6e733a786c696e6b3d27687474703a2f2f7777772e77332e6f72672f60768801526b189c9c9c97bc3634b735939f60a11b6096880152651e3232b3399f60d11b60a28801527f3c66696c7465722069643d226631223e3c6665496d61676520726573756c743d60a88801527f2270302220786c696e6b3a687265663d22646174613a696d6167652f7376672b60c88801526a1e1b5b0ed8985cd94d8d0b60aa1b60e88801526106ba81518092602060f38b019101613a71565b7f222f3e3c6665496d61676520726573756c743d2270312220786c696e6b3a687260f382890101527f65663d22646174613a696d6167652f7376672b786d6c3b6261736536342c00006101138289010152610722825180936020610131858c01019101613a71565b7f222f3e3c6665496d61676520726573756c743d2270322220786c696e6b3a687287820183016101318101919091527f65663d22646174613a696d6167652f7376672b786d6c3b6261736536342c000061015182015283519361079091859161016f90910190602001613a71565b8601010192631110179f60e11b61016f8501527f3c6665496d61676520726573756c743d2270332220786c696e6b3a687265663d6101738501527f22646174613a696d6167652f7376672b786d6c3b6261736536342c00000000006101938501526101ae936108088251809360208885019101613a71565b01928301527f70302220696e323d22703122202f3e3c6665426c656e64206d6f64653d2265786101ce8301527f636c7573696f6e2220696e323d22703222202f3e3c6665426c656e64206d6f646101ee8301527f653d226f7665726c61792220696e323d2270332220726573756c743d22626c6561020e8301527f6e644f757422202f3e3c6665476175737369616e426c7572200000000000000061022e8301527f696e3d22626c656e644f75742220737464446576696174696f6e3d22343222206102478301527f2f3e3c2f66696c7465723e203c636c6970506174682069643d22636f726e65726102678301527f73223e3c726563742077696474683d2232393022206865696768743d223530306102878301527f222072783d223432222072793d22343222202f3e3c2f636c6970506174683e006102a78301527f3c706174682069643d22746578742d706174682d612220643d224d34302031326102c68301527f20483235302041323820323820302030203120323738203430205634363020416102e68301527f32382032382030203020312032353020343838204834302041323820323820306103068301527f2030203120313220343630205634302041323820323820302030203120343020610326830152671899103d1110179f60c11b6103468301527f3c706174682069643d226d696e696d61702220643d224d32333420343434433261034e8301527f3334203435372e393439203234322e323120343633203235332034363322202f61036e830152601f60f91b61038e83018190527f3c66696c7465722069643d22746f702d726567696f6e2d626c7572223e3c666561038f8401527f476175737369616e426c757220696e3d22536f757263654772617068696322206103af8401527f737464446576696174696f6e3d22323422202f3e3c2f66696c7465723e0000006103cf8401527f3c6c696e6561724772616469656e742069643d22677261642d7570222078313d6103ec8401527f2231222078323d2230222079313d2231222079323d2230223e3c73746f70206f61040c8401527f66667365743d22302e30222073746f702d636f6c6f723d22776869746522207361042c840152713a37b816b7b830b1b4ba3c9e91189110179f60711b61044c8401527f3c73746f70206f66667365743d222e39222073746f702d636f6c6f723d22776861045e8401527f697465222073746f702d6f7061636974793d223022202f3e3c2f6c696e65617261047e8401526823b930b234b2b73a1f60b91b61049e8401527f3c6c696e6561724772616469656e742069643d22677261642d646f776e2220786104a78401527f313d2230222078323d2231222079313d2230222079323d2231223e3c73746f706104c78401527f206f66667365743d22302e30222073746f702d636f6c6f723d227768697465226104e78401527f2073746f702d6f7061636974793d223122202f3e3c73746f70206f66667365746105078401527f3d22302e39222073746f702d636f6c6f723d227768697465222073746f702d6f6105278401527f7061636974793d223022202f3e3c2f6c696e6561724772616469656e743e00006105478401527f3c6d61736b2069643d22666164652d757022206d61736b436f6e74656e74556e6105658401527f6974733d226f626a656374426f756e64696e67426f78223e3c726563742077696105858401527f6474683d223122206865696768743d2231222066696c6c3d2275726c282367726105a58401527030b216bab8149110179f1e17b6b0b9b59f60791b6105c58401527f3c6d61736b2069643d22666164652d646f776e22206d61736b436f6e74656e746105d68401527f556e6974733d226f626a656374426f756e64696e67426f78223e3c72656374206105f68401527f77696474683d223122206865696768743d2231222066696c6c3d2275726c28236106168401527433b930b216b237bbb7149110179f1e17b6b0b9b59f60591b6106368401527f3c6d61736b2069643d226e6f6e6522206d61736b436f6e74656e74556e69747361064b8401527f3d226f626a656374426f756e64696e67426f78223e3c7265637420776964746861066b8401527f3d223122206865696768743d2231222066696c6c3d22776869746522202f3e3c61068b8401526517b6b0b9b59f60d11b6106ab8401527f3c6c696e6561724772616469656e742069643d22677261642d73796d626f6c226106b18401527f3e3c73746f70206f66667365743d22302e37222073746f702d636f6c6f723d226106d18401527f7768697465222073746f702d6f7061636974793d223122202f3e3c73746f70206106f18401527f6f66667365743d222e3935222073746f702d636f6c6f723d22776869746522206107118401527f73746f702d6f7061636974793d223022202f3e3c2f6c696e65617247726164696107318401526332b73a1f60e11b6107518401527f3c6d61736b2069643d22666164652d73796d626f6c22206d61736b436f6e74656107558401527f6e74556e6974733d227573657253706163654f6e557365223e3c7265637420776107758401527f696474683d22323930707822206865696768743d223330307078222066696c6c6107958401527f3d2275726c2823677261642d73796d626f6c2922202f3e3c2f6d61736b3e3c2f6107b5840152643232b3399f60d91b6107d58401527f3c6720636c69702d706174683d2275726c2823636f726e65727329223e0000006107da8401526b1e3932b1ba103334b6361e9160a11b6107f784015281516108039391927f2220783d223070782220793d22307078222077696474683d2232393070782220929061103e90839087840190602001613a71565b0192830152703432b4b3b43a1e911a9818383c1110179f60791b6108238301527f3c72656374207374796c653d2266696c7465723a2075726c28236631292220786108348301527f3d223070782220793d22307078222077696474683d22323930707822206865696108548301526d33b43a1e911a9818383c1110179f60911b6108748301527f203c67207374796c653d2266696c7465723a75726c2823746f702d726567696f6108828301527f6e2d626c7572293b207472616e73666f726d3a7363616c6528312e35293b20746108a28301527f72616e73666f726d2d6f726967696e3a63656e74657220746f703b223e0000006108c28301527f3c726563742066696c6c3d226e6f6e652220783d223070782220793d223070786108df8301527f222077696474683d22323930707822206865696768743d22353030707822202f6108ff83015261091f8201527f3c656c6c697073652063783d22353025222063793d22307078222072783d22316109208201527f38307078222072793d223132307078222066696c6c3d222330343143333222206109408201527437b830b1b4ba3c9e9118171c1a9110179f1e17b39f60591b6109608201527f3c7265637420783d22302220793d2230222077696474683d22323930222068656109758201527f696768743d22353030222072783d223432222072793d223432222066696c6c3d6109958201527f227267626128302c302c302c302922207374726f6b653d2272676261283235356109b58201527416191a9a96191a9a96181719149110179f1e17b39f60591b6109d5820152036109ca810184520182613b6c565b83519361154a61024d60405180977f3c7465787420746578742d72656e646572696e673d226f7074696d697a65537060208301526432b2b2111f60d91b60408301527f3c74657874506174682073746172744f66667365743d222d313030252220666960458301527f6c6c3d2277686974652220666f6e742d66616d696c793d2227436f757269657260658301527f204e6577272c206d6f6e6f73706163652220666f6e742d73697a653d2231307060858301527f782220786c696e6b3a687265663d2223746578742d706174682d61223e00000060a58301528051602082019061138c8160c2860184613a71565b8301907f203c616e696d6174652061646469746976653d2273756d2220617474726962758060c28401527f74654e616d653d2273746172744f6666736574222066726f6d3d223025222074918260e28501527f6f3d22313030252220626567696e3d22307322206475723d223330732220726593846101028201527f70656174436f756e743d22696e646566696e69746522202f3e000000000000006101228201527f3c2f74657874506174683e203c74657874506174682073746172744f6666736561013b8201527f743d223025222066696c6c3d2277686974652220666f6e742d66616d696c793d61015b8201527f2227436f7572696572204e6577272c206d6f6e6f73706163652220666f6e742d61017b8201527f73697a653d22313070782220786c696e6b3a687265663d2223746578742d706161019b820152653a3416b0911f60d11b6101bb8201526114ed6101c19651809388840190613a71565b01938401526101e18301526102018201527f70656174436f756e743d22696e646566696e69746522202f3e203c2f746578746102218201526b2830ba341f1e17ba32bc3a1f60a11b6102418201520361022d810188520186613b6c565b516119176102ec60405180937f3c67206d61736b3d2275726c2823666164652d73796d626f6c29223e3c72656360208301527f742066696c6c3d226e6f6e652220783d223070782220793d223070782220776960408301527f6474683d22323930707822206865696768743d22343030707822202f3e203c7460608301527f65787420793d22373070782220783d2233327078222066696c6c3d227768697460808301527f652220666f6e742d66616d696c793d2227436f7572696572204e6577272c206d60a08301527f6f6e6f73706163652220666f6e742d7765696768743d223230302220666f6e7460c08301526c16b9b4bd329e91199b383c111f60991b60e08301526a135e481d995c9a599a595960aa1b60ed8301527f3c2f746578743e3c7465787420793d2231313570782220783d2233327078222060f88301527f66696c6c3d2277686974652220666f6e742d66616d696c793d2227436f7572696101188301527f6572204e6577272c206d6f6e6f73706163652220666f6e742d7765696768743d610138830152761119181811103337b73a16b9b4bd329e91199b383c111f60491b6101588301526e151dda5d1d195c881858d8dbdd5b9d608a1b61016f8301527f3c2f746578743e3c7465787420793d2231363070782220783d2233327078222061017e8301527f66696c6c3d2277686974652220666f6e742d66616d696c793d2227436f75726961019e8301527f6572204e6577272c206d6f6e6f73706163652220666f6e742d7765696768743d6101be830152761119181811103337b73a16b9b4bd329e91199b383c111f60491b6101de83015261697360f01b6101f58301527f3c2f746578743e3c7465787420793d2232303570782220783d223332707822206101f78301527f66696c6c3d2277686974652220666f6e742d66616d696c793d2227436f7572696102178301527f6572204e6577272c206d6f6e6f73706163652220666f6e742d7765696768743d610237830152761119181811103337b73a16b9b4bd329e91199b383c111f60491b6102578301526a1e17ba32bc3a1f1e17b39f60a91b61026e916118708151809260208688019101613a71565b8301918201527f3c7265637420783d2231362220793d223136222077696474683d2232353822206102798201527f6865696768743d22343638222072783d223236222072793d223236222066696c6102998201527f6c3d227267626128302c302c302c302922207374726f6b653d227267626128326102b9820152721a9a96191a9a96191a9a96181719149110179f60691b6102d9820152036102cc810184520182613b6c565b604051947f3c67207374796c653d227472616e73666f726d3a7472616e736c61746528383460208701527f70782c20333030707829207363616c65283529223e3c673e3c7061746820643d60408701527f224d342e34303433342031332e3630393943332e35313531372031332e31343460608701527f3820332031322e35393234203320313243332031302e3334333120372e30323960808701527f3434203920313220394331362e3937303620392032312031302e33343331203260a08701527f312031324332312031322e373134342032302e323530382031332e333730352060c08701527f31392031332e3838353822207374726f6b653d2277686974652220207374726f60e08701527f6b652d6c696e656361703d22726f756e6422207374726f6b652d6c696e656a6f6101008701527f696e3d22726f756e64222066696c6c3d226e6f6e65222f3e00000000000000006101208701527f3c7061746820643d224d323420342e353537632d2e3838332e3339322d312e386101388701527f33322e3635362d322e3832382e37373520312e3031372d2e36303920312e37396101588701527f382d312e35373420322e3136352d322e3732342d2e3935312e3536342d322e306101788701527f30352e3937342d332e31323720312e3139352d2e3839372d2e3935372d322e316101988701527f37382d312e3535352d332e3539342d312e3535352d332e31373920302d352e356101b88701527f313520322e3936362d342e37393720362e3034352d342e3039312d2e3230352d6101d88701527f372e3731392d322e3136352d31302e3134382d352e3134342d312e323920322e6101f88701527f3231332d2e36363920352e31303820312e35323320362e3537342d2e3830362d6102188701527f2e3032362d312e3536362d2e3234372d322e3232392d2e3631362d2e303534206102388701527f322e32383120312e35383120342e34313520332e39343920342e38392d2e36396102588701527f332e3138382d312e3435322e3233322d322e3232342e3038342e36323620312e6102788701527f39353620322e34343420332e33373920342e3620332e3431392d322e303720316102988701527f2e3632332d342e36373820322e3334382d372e323920322e303420322e3137396102b88701527f20312e33393720342e37363820322e32313220372e35343820322e32313220396102d88701527f2e31343220302031342e3330372d372e3732312031332e3939352d31342e36346102f88701527f362e3936322d2e36393520312e3739372d312e35363220322e3435372d322e35610318870152651a1cbd11179f60d11b6103388701527f3c616e696d6174655472616e73666f726d206174747269627574654e616d653d61033e8701527f227472616e73666f726d2220747970653d22726f74617465222066726f6d3d2261035e8701527f302031322031322220746f3d2233363020313220313222206475723d2231307361037e8701527f2220726570656174436f756e743d22696e646566696e697465222f3e3c2f673e61039e870152631e17b39f60e11b6103be8701526103a28652856103e08101106001600160401b036103e08801111761237357611e4c9286926103e09283850160405261040092611de3815180926020878a019101613a71565b8501611df88251809360208785019101613a71565b01611e0c8251809360208685019101613a71565b01611e1f84518093830160208701613a71565b0101651e17b9bb339f60d11b6020820152036103d91981016103e08601526103b919016103e08501613b6c565b60405191906001600160a01b0316608083016001600160401b0381118482101761237357604052605683526020830190606036833783511561235d5760308253835160019081101561235d57607860218601536055905b8082116123195750506122d5576102b861226a93611f72936103f693611ecf6103e06122d19901614295565b916040519687946f03d9130ba3a3934b13aba32b9911d2d960851b6020870152751ec89d1c985a5d17dd1e5c19488e880893985b59488b60521b603087015269113b30b63ab2911d101160b11b92836046880152611f3781518092602060508b019101613a71565b8601927f227d2c207b2274726169745f74797065223a20224f776e6572222c00000000006050850152606b8401525180936075840190613a71565b01907f227d5d2c20226465736372697074696f6e223a20225a4b20566572696669656460758301527f456d61696c7320617265205a4b2076657269666965642070726f6f6673206f6660958301527f20656d61696c20726563696576696e67206f6e20457468657265756d2e20546860b58301527f6579206f6e6c792072657665616c207061727473206f662074686520656d616960d58301527f6c206865616465727320616e6420626f647920626f64792c20616e642061726560f58301527f20766572696669656420766961206d61696c736572766572207369676e6174756101158301527f726520766572696669636174696f6e3a20746865726520617265206e6f2073706101358301527f656369616c207061727479206174746573746572732e2057652061726520776f6101558301527f726b696e6720746f2073686970206d6f72652076657269666961626c652070726101758301527f6f6f6673206f66207369676e6564206461746120696e636c7564696e67207a6b6101958301527f20626c696e642c20616e642061766f6964207465727269626c652074726167656101b58301527f6479206f662074686520636f6d6d6f6e73207363656e6172696f7320776865726101d58301527f6520696e73746974756974696f6e2072657075746174696f6e20697320736c6f6101f58301527f776c79207370656e7420627920697473206d656d626572732e205665726966696102158301527f6564456d61696c2075736573205a4b20534e41524b7320746f20696e73696e756102358301527f617465207468697320736f6369616c2064796e616d69632c20776974682061206102558301527f66697273742064656d6f206174207a6b656d61696c2e78797a2e222c2022696d6102758301527f616765223a2022646174613a696d6167652f7376672b786d6c3b626173653634610295830152600b60fa1b6102b58301526102b69161224f8251809360208685019101613a71565b019061227d60f01b9082015203610298810184520182613b6c565b6122bd603d60405180937f646174613a6170706c69636174696f6e2f6a736f6e3b6261736536342c00000060208301526122ad8151809260208686019101613a71565b810103601d810184520182613b6c565b604051918291602083526020830190613a94565b0390f35b606460405162461bcd60e51b815260206004820152602060248201527f537472696e67733a20686578206c656e67746820696e73756666696369656e746044820152fd5b9091600f811690601082101561235d57612357916f181899199a1a9b1b9c1cb0b131b232b360811b901a61234d85896141ba565b5360041c926143f9565b90611ea3565b634e487b7160e01b600052603260045260246000fd5b634e487b7160e01b600052604160045260246000fd5b34610193576000366003190112610193576020604051601f8152f35b34610193576080366003190112610193576123be613ab9565b6123c6613acf565b606435916001600160401b0383116101935736602384011215610193578260040135916123f283613c87565b926124006040519485613b6c565b808452366024828701011161019357602081600092602461242d9801838801378501015260443591613f96565b005b3461019357604036600319011261019357612448613ab9565b60243590811515809203610193576001600160a01b03169081156124bb57336000526005602052604060002082600052602052604060002060ff1981541660ff83161790556040519081527f17307eab39ab6107e8899845ad3d59bd9653f200f220920489ca2b5937696c3160203392a3005b604051630b61174360e31b815260048101839052602490fd5b346101935760003660031901126101935760405160006001828154926124f984613b8d565b92838352602094858282169182600014612592575050600114612538575b5061252492500383613b6c565b6122d1604051928284938452830190613a94565b6000818152859250907fb10e2d527612073b26eecdfd717e6a320cf44b4afac2b0732d9fcbe2b7fa0cf65b85831061257a575050612524935082010185612517565b80548389018501528794508693909201918101612563565b60ff19168582015261252495151560051b85010192508791506125179050565b346101935760203660031901126101935760206125d56125d0613ab9565b613ca2565b604051908152f35b346101935760203660031901126101935760206125fb6004356140e9565b6040516001600160a01b039091168152f35b34610193576101803660031901126101935736602312156101935760405161010081018181106001600160401b0382111761237357604052803661010411610193576004905b610104821061300757823661012312156101935760405190608082018281106001600160401b038211176123735760405281366101841161019357610104905b6101848210612ff7575050815160206126f160018060a01b03600b54166040516126bc81613b1a565b6005815264782e636f6d60d81b848201526040518095819482936373d3cbbd60e11b8452604060048501526044840190613a94565b90602483015203915afa908115612f5a57600091612fd8575b5015612f9a576040519061271d82613b1a565b805182526020810151602083015260405161273781613b1a565b60405161274381613b1a565b6040830151815260608301516020820152815260405161276281613b1a565b6080830151815260a08301516020820152602082015260e06040519261278784613b1a565b60c0810151845201516020830152604051635fe8c13b60e01b8152926127b190600485019061426d565b6000604484015b60028210612f7c575050506127d19060c483019061426d565b81600061010483015b60048210612f66575060209150829050610184817f00000000000000000000000000000000000000000000000000000000000000006001600160a01b03165afa908115612f5a57600091612f2b575b5015612ef6576040519061283c82613b1a565b600182526020368184013760015b60028110612ec657600a54836001820182116128ed5760008151601f810290808204601f14901517156128ed5761288090614188565b9060009260005b815161ffff821610156129d1576128a261ffff82168361422f565b51604051906128b082613b35565b601f82526103e036602084013760005b601f81106129a057509060005b601f81106129035750505061ffff80808316146128ed5716600101612887565b634e487b7160e01b600052601160045260246000fd5b909196612910828461422f565b5160ff8116156129755761293f919060f81b6001600160f81b03191660001a612939828a6141ba565b536141cb565b966001861615612960575b612958905b60081c916141cb565b9190916128cd565b9461296d61295891614243565b95905061294a565b509660018087161461298b575b6129589061294f565b9461299861295891614243565b959050612982565b8060031b90808204600814811517156128ed5760ff836129cc931c166129c6828661422f565b526141cb565b6128c0565b838686600160ff871610612e3b57601f10612dd85781519060005b8351811015612dd1576001600160f81b0319612a0882866141ba565b511615612a1d57612a18906141cb565b6129ec565b9091505b612a2a81614188565b9260005b828110612da65750505060018101600052600c602052604060002082516001600160401b03811161237357612a638254613b8d565b601f8111612d5e575b506020601f8211600114612cf85781929394600092612ced575b50508160011b916000199060031b1c19161790555b3315612cd457600181016000908152600260205260409020546001600160a01b03168015801592919083612c93575b3360005260036020526040600020600181540190556001830160005260026020526040600020336001600160601b0360a01b8254161790556001830133837fddf252ad1be2c89b69c2b068fc378daa952ba7f163c4a11628f55a4df523b3ef600080a415612c065760085460018301600052600960205280604060002055600160401b81101561237357612b67816001612b829301600855614124565b600185019082549060031b91821b91600019901b1916179055565b3303612bba575b50612ba157600a54600181018091116128ed57600a55005b6040516339e3563760e11b815260006004820152602490fd5b612bc333613ca2565b6000198101919082116128ed5760019033600052600660205260406000208360005260205281810160406000205501600052600760205260406000205581612b89565b338114612b8257612c1681613ca2565b600183016000526007602052604060002054818103612c60575b50600183016000526000604081205581600052600660205260406000209060005260205260006040812055612b82565b60008381526006602090815260408083208584528252808320548484528184208190558352600790915290205584612c30565b612cb960018401600052600460205260406000206001600160601b0360a01b8154169055565b81600052600360205260406000206000198154019055612aca565b604051633250574960e11b815260006004820152602490fd5b015190508480612a86565b601f198216908360005260206000209160005b818110612d4657509583600195969710612d2d575b505050811b019055612a9b565b015160001960f88460031b161c19169055848080612d20565b9192602060018192868b015181550194019201612d0b565b826000526020600020601f830160051c81019160208410612d9c575b601f0160051c01905b818110612d905750612a6c565b60008155600101612d83565b9091508190612d7a565b612dcc906001600160f81b0319612dbd82856141ba565b511660001a61293982886141ba565b612a2e565b5090612a21565b60405162461bcd60e51b815260206004820152603560248201527f5061636b6564206279746573206d6f7265207468616e20616c6c6f776564206d6044820152746178206e756d626572206f66207369676e616c732160581b6064820152608490fd5b60405162461bcd60e51b815260206004820152605760248201527f4e6f207061636b656420627974657320666f756e642120496e76616c6964206660448201527f696e616c207374617465206f66207061636b656420627974657320696e20656d60648201527661696c3b2076616c7565206973206c696b656c7920302160481b608482015260a490fd5b600481101561235d578060051b820151906000198101918183116128ed576129c6612ef1938661422f565b61284a565b60405162461bcd60e51b815260206004820152600d60248201526c24b73b30b634b210283937b7b360991b6044820152606490fd5b612f4d915060203d602011612f53575b612f458183613b6c565b810190614255565b82612829565b503d612f3b565b6040513d6000823e3d90fd5b60208060019285518152019301910190916127da565b6020604082612f8e600194875161426d565b019301910190916127b8565b60405162461bcd60e51b8152602060048201526016602482015275696e76616c696420646b696d207369676e617475726560501b6044820152606490fd5b612ff1915060203d602011612f5357612f458183613b6c565b8361270a565b8135815260209182019101612693565b8135815260209182019101612653565b3461019357602036600319011261019357600435600052600c6020526122d16122bd6040600020613bc7565b346101935760203660031901126101935760043560085481101561307a5761306c602091614124565b90546040519160031b1c8152f35b6044906040519063295f44f760e21b8252600060048301526024820152fd5b346101935761242d6130aa36613ae5565b90604051926130b884613b51565b60008452613f96565b3461019357602080600319360112610193576004359081600052600c81526130f56130ef6040600020613bc7565b926140e9565b91604051926001600160601b03199060601b16828401526014835261311983613b1a565b6040519261312684613b1a565b601084526f181899199a1a9b1b9c1cb0b131b232b360811b838501528051600181811b6002928082048414901517156128ed5782018083116128ed5761316b90614188565b9283511561235d578584019660308853845183101561235d578290607860218701536000915b613205575b6131f688612524603b8a8d8b6040519687936f5477697474657220757365726e616d6560801b888601526131d3815180928a603089019101613a71565b8401916a6973206f776e656420627960a81b603084015251809386840190613a71565b0103601b810185520183613b6c565b82518210156132a0576001600160f81b0319918261323061322683876141ba565b5160fc1c846141ba565b51169281861b938285048814831517156128ed57848801908189116128ed5761325d9060001a918a6141ba565b53613278600f61326d84886141ba565b5160f81c16846141ba565b51169060039384018094116128ed57859361293961329a9360001a918a6141ba565b91613191565b613196565b3461019357602080600319360112610193576004356001600160401b039182821161019357366023830112156101935781600401359160249383116136d2578260051b604051936132f884830186613b6c565b84528483850191830101913683116101935785849101915b8383106136c25750505050600090825191601f92838102908082048514901517156136ad5761333e90614188565b6000805b865161ffff82169081101561348d5761335b908861422f565b516040519061336982613b35565b8782526103e0368884013760005b88811061344d57509060005b8881106133b75750505061ffff8091169081146133a257600101613342565b87634e487b7160e01b60005260116004526000fd5b9091936133c4828461422f565b5160ff811615613422576133ed919060f81b6001600160f81b03191660001a61293982896141ba565b93600187161561340d575b6134059060081c916141cb565b919091613383565b9561341a61340591614243565b9690506133f8565b5093600180881614613438575b6134059061294f565b9561344561340591614243565b96905061342f565b8060031b90808204600814811517156134785760ff83613473931c166129c6828661422f565b613377565b8b634e487b7160e01b60005260116004526000fd5b838660018b8660ff8a168311613623576012106135c257508251906000815b613581575b50506134bc81614188565b9060005b818110613556575050604051906134d682613b1a565b6040516134e281613b1a565b600c81526b76657269667940782e636f6d60a01b84820152825261352f6040519261350c84613b1a565b600a845269696e666f40782e636f6d60b01b8585015284810193845251826141da565b918215613543575b50506040519015158152f35b61354f925051906141da565b8280613537565b61357c906001600160f81b031961356d82886141ba565b511660001a61293982866141ba565b6134c0565b84518110156135bd576001600160f81b031961359d82876141ba565b5116156135b3576135ad906141cb565b816134ac565b91505083806134b1565b6134b1565b8260356084926040519262461bcd60e51b845260048401528201527f5061636b6564206279746573206d6f7265207468616e20616c6c6f776564206d6044820152746178206e756d626572206f66207369676e616c732160581b6064820152fd5b60405162461bcd60e51b8152600481018590526057818401527f4e6f207061636b656420627974657320666f756e642120496e76616c6964206660448201527f696e616c207374617465206f66207061636b656420627974657320696e20656d60648201527661696c3b2076616c7565206973206c696b656c7920302160481b608482015260a490fd5b85634e487b7160e01b60005260116004526000fd5b8235815291810191849101613310565b83634e487b7160e01b60005260416004526000fd5b3461019357600036600319011261019357602060405160028152f35b346101935760403660031901126101935761371c613ab9565b6024359061372981613ca2565b82101561375c5760018060a01b031660005260066020526040600020906000526020526020604060002054604051908152f35b60405163295f44f760e21b81526001600160a01b039190911660048201526024810191909152604490fd5b34610193576000366003190112610193576040517f00000000000000000000000000000000000000000000000000000000000000006001600160a01b03168152602090f35b346101935761242d6137dd36613ae5565b91613cdb565b34610193576000366003190112610193576020600854604051908152f35b3461019357600036600319011261019357602060405160008152f35b3461019357604036600319011261019357613836613ab9565b602435613842816140e9565b331515806138f1575b806138c4575b6138ac576001600160a01b039283169282918491167f8c5be1e5ebec7d5bd14f71427d1e84f3dd0314c0f7b2291e5b200ac8c7c3b925600080a4600090815260046020526040902080546001600160a01b0319169091179055005b60405163a9fbf51f60e01b8152336004820152602490fd5b5060018060a01b038116600052600560205260406000203360005260205260ff6040600020541615613851565b506001600160a01b03811633141561384b565b3461019357602036600319011261019357600435613921816140e9565b506000526004602052602060018060a01b0360406000205416604051908152f35b346101935760003660031901126101935760405160008054908261396583613b8d565b91828252602093600190858282169182600014612592575050600114613992575061252492500383613b6c565b6000808052859250907f290decd9548b62a8d60345a988386fc84ba6bc95484008f6362f93160ef3e5635b8583106139d4575050612524935082010185612517565b805483890185015287945086939092019181016139bd565b34610193576020366003190112610193576004359063ffffffff60e01b82168092036101935760209163780e9d6360e01b8114908115613a2e575b5015158152f35b6380ac58cd60e01b811491508115613a60575b8115613a4f575b5083613a27565b6301ffc9a760e01b14905083613a48565b635b5e139f60e01b81149150613a41565b60005b838110613a845750506000910152565b8181015183820152602001613a74565b90602091613aad81518092818552858086019101613a71565b601f01601f1916010190565b600435906001600160a01b038216820361019357565b602435906001600160a01b038216820361019357565b6060906003190112610193576001600160a01b0390600435828116810361019357916024359081168103610193579060443590565b604081019081106001600160401b0382111761237357604052565b61040081019081106001600160401b0382111761237357604052565b602081019081106001600160401b0382111761237357604052565b90601f801991011681019081106001600160401b0382111761237357604052565b90600182811c92168015613bbd575b6020831014613ba757565b634e487b7160e01b600052602260045260246000fd5b91607f1691613b9c565b90604051918260008254613bda81613b8d565b908184526020946001918281169081600014613c495750600114613c0a575b505050613c0892500383613b6c565b565b600090815285812095935091905b818310613c31575050613c089350820101388080613bf9565b85548884018501529485019487945091830191613c18565b92505050613c0894925060ff191682840152151560051b820101388080613bf9565b3461019357600036600319011261019357602060405160018152f35b6001600160401b03811161237357601f01601f191660200190565b6001600160a01b03168015613cc257600052600360205260406000205490565b6040516322718ad960e21b815260006004820152602490fd5b6001600160a01b0382811693918415612cd457600094838652602095600287526040968488832054169633151580613f08575b5087158015613ed5575b84845260038352898420805460010190558784526002835289842080546001600160a01b0319168617905587858a7fddf252ad1be2c89b69c2b068fc378daa952ba7f163c4a11628f55a4df523b3ef8780a415613e595760085487845260098352808a852055600160401b811015613e455787613d9e826001613db79401600855614124565b90919082549060031b91821b91600019901b1916179055565b838803613df3575b505050501692838303613dd25750505050565b6064945051926364283d7b60e01b8452600484015260248301526044820152fd5b613dfc90613ca2565b600019810193908411613e315782916007918a9452600681528383208584528152878484205587835252205538808080613dbf565b634e487b7160e01b83526011600452602483fd5b634e487b7160e01b84526041600452602484fd5b878414613db757613e6988613ca2565b8784526007835289842054818103613e9e575b50878452838a8120558884526006835289842090845282528289812055613db7565b898552600684528a852082865284528a8520548a8652600685528b86208287528552808c8720558552600784528a85205538613e7c565b600088815260046020526040902080546001600160a01b0319169055888452600383528984208054600019019055613d18565b80613f55575b15613f195738613d0e565b888789613f36576024915190637e27328960e01b82526004820152fd5b905163177e802f60e01b81523360048201526024810191909152604490fd5b503388148015613f7a575b80613f0e57508683526004825233868a8520541614613f0e565b5087835260058252888320338452825260ff8984205416613f60565b613fa1838383613cdb565b813b613fae575b50505050565b604051630a85bd0160e11b8082523360048301526001600160a01b03928316602483015260448201949094526080606482015260209592909116939092908390613ffc906084830190613a94565b039285816000958187895af18491816140a5575b50614070575050503d600014614068573d61402a81613c87565b906140386040519283613b6c565b81528091843d92013e5b8051928361406357604051633250574960e11b815260048101849052602490fd5b019050fd5b506060614042565b919450915063ffffffff60e01b160361408d575038808080613fa8565b60249060405190633250574960e11b82526004820152fd5b9091508681813d83116140e2575b6140bd8183613b6c565b810103126140de57516001600160e01b0319811681036140de579038614010565b8480fd5b503d6140b3565b6000818152600260205260409020546001600160a01b031690811561410c575090565b60249060405190637e27328960e01b82526004820152fd5b60085481101561235d5760086000527ff3f7a9fe364faab93b216da50a3214154f22a0a2b415b23a84c8169e8b636ee30190600090565b818102929181159184041417156128ed57565b6040519061417b82613b1a565b6006825260203681840137565b9061419282613c87565b61419f6040519182613b6c565b82815280926141b0601f1991613c87565b0190602036910137565b90815181101561235d570160200190565b60001981146128ed5760010190565b90604051916020926142088482816141fb8183019687815193849201613a71565b8101038084520182613b6c565b519020916142286040519182816141fb8183019687815193849201613a71565b5190201490565b805182101561235d5760209160051b010190565b60ff60019116019060ff82116128ed57565b90816020910312610193575180151581036101935790565b6000915b6002831061427e57505050565b600190825181526020809101920192019190614271565b8051156143e55760405190606082018281106001600160401b0382111761237357604052604082527f4142434445464748494a4b4c4d4e4f505152535455565758595a61626364656660208301527f6768696a6b6c6d6e6f707172737475767778797a303132333435363738392b2f604083015280516002918282018092116128ed576003918290046001600160fe1b03811681036128ed5761433b908495941b614188565b936020850193829183518401906020820192835194600085525b83811061439457505050505251068060011461438157600214614376575090565b603d90600019015390565b50603d9081600019820153600119015390565b87600491999293949901918251600190603f9082828260121c16880101518453828282600c1c16880101518385015382828260061c1688010151888501531685010151898201530197929190614355565b506040516143f281613b51565b6000815290565b80156128ed576000190190565b7f3c7376672077696474683d2732393027206865696768743d273530302720766981527f6577426f783d2730203020323930203530302720786d6c6e733d27687474703a60208201527f2f2f7777772e77332e6f72672f323030302f737667273e3c636972636c652063604082015262783d2760e81b606082015260630190565b610102908181029181830414901517156128ed5760ff9004601081018091116128ed576000908072184f03e93ff9f4daa797ed6e38ed64bf6a1f0160401b81818110156145dc575b50506d04ee2d6d415b85acef8100000000808310156145cd575b50662386f26fc10000808310156145be575b506305f5e100808310156145af575b50612710808310156145a0575b506064821015614590575b600a80921015614586575b60019081602161453e828701614188565b95860101905b614550575b5050505090565b600019019083906f181899199a1a9b1b9c1cb0b131b232b360811b8282061a83530491821561458157919082614544565b614549565b916001019161452d565b9190606460029104910191614522565b60049193920491019138614517565b6008919392049101913861450a565b601091939204910191386144fb565b602091939204910191386144e9565b6040945004915038806144cf565b610180908181029181830414901517156128ed5760ff9004606481018091116128ed576000908072184f03e93ff9f4daa797ed6e38ed64bf6a1f0160401b8181811015614739575b50506d04ee2d6d415b85acef81000000008083101561472a575b50662386f26fc100008083101561471b575b506305f5e1008083101561470c575b50612710808310156146fd575b5060648210156146ed575b600a809210156146e3575b6001908160216146a1828701614188565b95860101905b6146b2575050505090565b600019019083906f181899199a1a9b1b9c1cb0b131b232b360811b8282061a835304918215614581579190826146a7565b9160010191614690565b9190606460029104910191614685565b6004919392049101913861467a565b6008919392049101913861466d565b6010919392049101913861465e565b6020919392049101913861464c565b604094500491503880614632565b60881c61475261416e565b90815190815b61476157505090565b600f81169060108210156147c65760001983018381116147b1576147aa926f181899199a1a9b1b9c1cb0b131b232b360811b901a906147a090866141ba565b5360041c916143f9565b9081614758565b60246000634e487b7160e01b81526011600452fd5b60246000634e487b7160e01b81526032600452fd5b6147e361416e565b90815190815b6147f257505090565b600f81169060108210156147c65760001983018381116147b157614831926f181899199a1a9b1b9c1cb0b131b232b360811b901a906147a090866141ba565b90816147e956fea2646970667358221220d90760c2fb627eeea904cd0ce04f9ed840f83929ded55da0a3d680384204d83d64736f6c63430008150033","linkReferences":{}},"methodIdentifiers":{"_domainCheck(uint256[])":"3827fc6f","addressIndexInSignals()":"312033bf","approve(address,uint256)":"095ea7b3","balanceOf(address)":"70a08231","bytesInPackedBytes()":"bec47aea","getApproved(uint256)":"081812fc","isApprovedForAll(address,address)":"e985e9c5","mint(uint256[8],uint256[4])":"572f892a","name()":"06fdde03","ownerOf(uint256)":"6352211e","pubKeyHashIndexInSignals()":"14c52251","safeTransferFrom(address,address,uint256)":"42842e0e","safeTransferFrom(address,address,uint256,bytes)":"b88d4fde","setApprovalForAll(address,bool)":"a22cb465","supportsInterface(bytes4)":"01ffc9a7","symbol()":"95d89b41","tokenByIndex(uint256)":"4f6ccce7","tokenDesc(uint256)":"3e098490","tokenIDToName(uint256)":"4f79d38a","tokenOfOwnerByIndex(address,uint256)":"2f745c59","tokenURI(uint256)":"c87b56dd","totalSupply()":"18160ddd","transferFrom(address,address,uint256)":"23b872dd","usernameIndexInSignals()":"c9929db9","usernameLengthInSignals()":"61e80718","verifier()":"2b7ac3f3"},"id":43}