{"abi":[{"type":"constructor","inputs":[{"name":"_signer","type":"address","internalType":"address"}],"stateMutability":"nonpayable"},{"type":"function","name":"dkimPublicKeyHashes","inputs":[{"name":"","type":"string","internalType":"string"},{"name":"","type":"bytes32","internalType":"bytes32"}],"outputs":[{"name":"","type":"bool","internalType":"bool"}],"stateMutability":"view"},{"type":"function","name":"isDKIMPublicKeyHashValid","inputs":[{"name":"domainName","type":"string","internalType":"string"},{"name":"publicKeyHash","type":"bytes32","internalType":"bytes32"}],"outputs":[{"name":"","type":"bool","internalType":"bool"}],"stateMutability":"view"},{"type":"function","name":"owner","inputs":[],"outputs":[{"name":"","type":"address","internalType":"address"}],"stateMutability":"view"},{"type":"function","name":"renounceOwnership","inputs":[],"outputs":[],"stateMutability":"nonpayable"},{"type":"function","name":"revokeDKIMPublicKeyHash","inputs":[{"name":"publicKeyHash","type":"bytes32","internalType":"bytes32"}],"outputs":[],"stateMutability":"nonpayable"},{"type":"function","name":"revokedDKIMPublicKeyHashes","inputs":[{"name":"","type":"bytes32","internalType":"bytes32"}],"outputs":[{"name":"","type":"bool","internalType":"bool"}],"stateMutability":"view"},{"type":"function","name":"setDKIMPublicKeyHash","inputs":[{"name":"domainName","type":"string","internalType":"string"},{"name":"publicKeyHash","type":"bytes32","internalType":"bytes32"}],"outputs":[],"stateMutability":"nonpayable"},{"type":"function","name":"setDKIMPublicKeyHashes","inputs":[{"name":"domainName","type":"string","internalType":"string"},{"name":"publicKeyHashes","type":"bytes32[]","internalType":"bytes32[]"}],"outputs":[],"stateMutability":"nonpayable"},{"type":"function","name":"transferOwnership","inputs":[{"name":"newOwner","type":"address","internalType":"address"}],"outputs":[],"stateMutability":"nonpayable"},{"type":"event","name":"DKIMPublicKeyHashRegistered","inputs":[{"name":"domainName","type":"string","indexed":false,"internalType":"string"},{"name":"publicKeyHash","type":"bytes32","indexed":false,"internalType":"bytes32"}],"anonymous":false},{"type":"event","name":"DKIMPublicKeyHashRevoked","inputs":[{"name":"publicKeyHash","type":"bytes32","indexed":false,"internalType":"bytes32"}],"anonymous":false},{"type":"event","name":"OwnershipTransferred","inputs":[{"name":"previousOwner","type":"address","indexed":true,"internalType":"address"},{"name":"newOwner","type":"address","indexed":true,"internalType":"address"}],"anonymous":false},{"type":"error","name":"OwnableInvalidOwner","inputs":[{"name":"owner","type":"address","internalType":"address"}]},{"type":"error","name":"OwnableUnauthorizedAccount","inputs":[{"name":"account","type":"address","internalType":"address"}]}],"bytecode":{"object":"0x6080346100bb57601f6107e038819003918201601f19168301916001600160401b038311848410176100c0578084926020946040528339810103126100bb57516001600160a01b0390818116908190036100bb5780156100a257600080546001600160a01b03198116831782556040519316907f8be0079c531659141344cd1fd0a4f28419497f9722a3daafe3b4186f6b6457e09080a361070990816100d78239f35b604051631e4fbdf760e01b815260006004820152602490fd5b600080fd5b634e487b7160e01b600052604160045260246000fdfe60406080815260048036101561001457600080fd5b6000803560e01c80630690bd381461051a57806315d2512e146104ba57806342d7cb981461048c578063715018a6146104325780638da5cb5b1461040a578063c15cffab14610310578063e7a7977a146102e7578063f2fde38b1461025d5763f49eb1641461008257600080fd5b3461025a578260031936011261025a5767ffffffffffffffff918035838111610256576100b2903690830161059f565b602494853591858311610252573660238401121561025257828401359586116102405760059186831b9360209489866100ec818401610563565b809b815201918301019136831161023c579498948a01905b82821061022d5750505061011661064c565b81840192865b81518110156102295785818a1b8301015161013561064c565b8089526002875260ff848a2054166101eb577f510dac88eaf2dfbd53904241fc199ad46b2063e6bf6c3fb291f8ce8643663419908451865161017881838b610629565b810190898160019384815203019020828c528952858b209060ff1982541617905584519085825281875180888301526060926101b7828585018d610629565b828c0152601f01601f19168101030190a160001981146101d95760010161011c565b634e487b7160e01b8852601187528988fd5b835162461bcd60e51b81528089018890526019818d01527863616e6e6f7420736574207265766f6b6564207075626b657960381b6044820152606490fd5b8780f35b81358152908601908601610104565b8880fd5b634e487b7160e01b8552604184528685fd5b8480fd5b8280fd5b80fd5b509134610256576020366003190112610256576001600160a01b038235818116939192908490036102525761029061064c565b83156102d157505082546001600160a01b0319811683178455167f8be0079c531659141344cd1fd0a4f28419497f9722a3daafe3b4186f6b6457e08380a380f35b51631e4fbdf760e01b8152908101849052602490fd5b50823461030c576020906103036102fd366105f7565b90610678565b90519015158152f35b5080fd5b50823461030c57610320366105f7565b61032b94919461064c565b8084526020916002835260ff84862054166103cb5750936060917f510dac88eaf2dfbd53904241fc199ad46b2063e6bf6c3fb291f8ce8643663419949584519183519281818187019561037f818389610629565b810160018152030190208289528152858820600160ff198254161790556103b88651968795818752519485809288015287870190610629565b830152601f01601f19168101030190a180f35b835162461bcd60e51b8152908101839052601960248201527863616e6e6f7420736574207265766f6b6564207075626b657960381b6044820152606490fd5b50823461030c578160031936011261030c57905490516001600160a01b039091168152602090f35b503461025a578060031936011261025a5761044b61064c565b80546001600160a01b03198116825581906001600160a01b03167f8be0079c531659141344cd1fd0a4f28419497f9722a3daafe3b4186f6b6457e08280a380f35b50919034610256576020366003190112610256578160209360ff923581526002855220541690519015158152f35b50919034610256576020366003190112610256577fb80fff2b4c6f3ddf804877927c77b2fe1871cecaa5ad43d2c7c42f417331f8659160209135906104fd61064c565b81855260028352808520805460ff1916600117905551908152a180f35b50823461030c5760ff8160209384610548610534366105f7565b929081865193828580945193849201610629565b81016001815203019020908252855220541690519015158152f35b6040519190601f01601f1916820167ffffffffffffffff81118382101761058957604052565b634e487b7160e01b600052604160045260246000fd5b81601f820112156105f25780359067ffffffffffffffff8211610589576105cf601f8301601f1916602001610563565b92828452602083830101116105f257816000926020809301838601378301015290565b600080fd5b60406003198201126105f2576004359067ffffffffffffffff82116105f2576106229160040161059f565b9060243590565b60005b83811061063c5750506000910152565b818101518382015260200161062c565b6000546001600160a01b0316330361066057565b60405163118cdaa760e01b8152336004820152602490fd5b90600091818352600260205260ff6040842054166106ce5760206106a9918160405193828580945193849201610629565b8101600181520301902090825260205260ff6040822054166106c85790565b50600190565b50509056fea2646970667358221220ba6e9a57c8d6071952290b69cb3af5c4ffbb7989ec47bd6bc4e036d8eab6778d64736f6c63430008150033","linkReferences":{}},"methodIdentifiers":{"dkimPublicKeyHashes(string,bytes32)":"0690bd38","isDKIMPublicKeyHashValid(string,bytes32)":"e7a7977a","owner()":"8da5cb5b","renounceOwnership()":"715018a6","revokeDKIMPublicKeyHash(bytes32)":"15d2512e","revokedDKIMPublicKeyHashes(bytes32)":"42d7cb98","setDKIMPublicKeyHash(string,bytes32)":"c15cffab","setDKIMPublicKeyHashes(string,bytes32[])":"f49eb164","transferOwnership(address)":"f2fde38b"},"id":15}